{
  "_format": "hh-sol-artifact-1",
  "contractName": "Swap",
  "sourceName": "contracts/Swap.sol",
  "abi": [
    {
      "anonymous": false,
      "inputs": [
        {
          "indexed": true,
          "internalType": "address",
          "name": "previousOwner",
          "type": "address"
        },
        {
          "indexed": true,
          "internalType": "address",
          "name": "newOwner",
          "type": "address"
        }
      ],
      "name": "OwnershipTransferred",
      "type": "event"
    },
    {
      "inputs": [],
      "name": "owner",
      "outputs": [
        {
          "internalType": "address",
          "name": "",
          "type": "address"
        }
      ],
      "stateMutability": "view",
      "type": "function"
    },
    {
      "inputs": [],
      "name": "renounceOwnership",
      "outputs": [],
      "stateMutability": "nonpayable",
      "type": "function"
    },
    {
      "inputs": [
        {
          "internalType": "address",
          "name": "_tokenIn",
          "type": "address"
        },
        {
          "internalType": "address",
          "name": "_tokenOut",
          "type": "address"
        },
        {
          "internalType": "uint256",
          "name": "_amountIn",
          "type": "uint256"
        },
        {
          "internalType": "uint256",
          "name": "_amountOutMin",
          "type": "uint256"
        }
      ],
      "name": "swapFromERC20",
      "outputs": [],
      "stateMutability": "nonpayable",
      "type": "function"
    },
    {
      "inputs": [
        {
          "internalType": "address",
          "name": "_tokenOut",
          "type": "address"
        },
        {
          "internalType": "uint256",
          "name": "_amountOutMin",
          "type": "uint256"
        }
      ],
      "name": "swapFromETH",
      "outputs": [],
      "stateMutability": "payable",
      "type": "function"
    },
    {
      "inputs": [
        {
          "internalType": "address",
          "name": "newOwner",
          "type": "address"
        }
      ],
      "name": "transferOwnership",
      "outputs": [],
      "stateMutability": "nonpayable",
      "type": "function"
    },
    {
      "inputs": [
        {
          "internalType": "address",
          "name": "_token",
          "type": "address"
        },
        {
          "internalType": "address",
          "name": "_recipient",
          "type": "address"
        }
      ],
      "name": "withdrawFees",
      "outputs": [],
      "stateMutability": "nonpayable",
      "type": "function"
    }
  ],
  "bytecode": "0x608060405234801561001057600080fd5b506115d2806100206000396000f3fe6080604052600436106100555760003560e01c806341d7b7071461005a578063715018a6146100835780638da5cb5b1461009a578063eaa3db32146100c5578063f2555278146100e1578063f2fde38b1461010a575b600080fd5b34801561006657600080fd5b50610081600480360381019061007c9190610c76565b610133565b005b34801561008f57600080fd5b50610098610151565b005b3480156100a657600080fd5b506100af6101d9565b6040516100bc9190610f9d565b60405180910390f35b6100df60048036038101906100da9190610cd9565b610203565b005b3480156100ed57600080fd5b5061010860048036038101906101039190610c3a565b610245565b005b34801561011657600080fd5b50610131600480360381019061012c9190610c11565b610376565b005b61013f8433308561046e565b61014b848484846105a7565b50505050565b610159610803565b73ffffffffffffffffffffffffffffffffffffffff166101776101d9565b73ffffffffffffffffffffffffffffffffffffffff16146101cd576040517f08c379a00000000000000000000000000000000000000000000000000000000081526004016101c490611098565b60405180910390fd5b6101d7600061080b565b565b6000603360009054906101000a900473ffffffffffffffffffffffffffffffffffffffff16905090565b61022173c778417e063141139fce010982780140aa0cd5ab346108d1565b61024173c778417e063141139fce010982780140aa0cd5ab8334846105a7565b5050565b60008290506102dd83308373ffffffffffffffffffffffffffffffffffffffff166370a08231306040518263ffffffff1660e01b81526004016102889190610f9d565b60206040518083038186803b1580156102a057600080fd5b505afa1580156102b4573d6000803e3d6000fd5b505050506040513d601f19601f820116820180604052508101906102d89190610d7f565b6109c5565b6103718330848473ffffffffffffffffffffffffffffffffffffffff166370a08231306040518263ffffffff1660e01b815260040161031c9190610f9d565b60206040518083038186803b15801561033457600080fd5b505afa158015610348573d6000803e3d6000fd5b505050506040513d601f19601f8201168201806040525081019061036c9190610d7f565b61046e565b505050565b61037e610803565b73ffffffffffffffffffffffffffffffffffffffff1661039c6101d9565b73ffffffffffffffffffffffffffffffffffffffff16146103f2576040517f08c379a00000000000000000000000000000000000000000000000000000000081526004016103e990611098565b60405180910390fd5b600073ffffffffffffffffffffffffffffffffffffffff168173ffffffffffffffffffffffffffffffffffffffff161415610462576040517f08c379a000000000000000000000000000000000000000000000000000000000815260040161045990611018565b60405180910390fd5b61046b8161080b565b50565b6000808573ffffffffffffffffffffffffffffffffffffffff166323b872dd8686866040516024016104a293929190610fb8565b6040516020818303038152906040529060e01b6020820180517bffffffffffffffffffffffffffffffffffffffffffffffffffffffff83818316178352505050506040516104f09190610f71565b6000604051808303816000865af19150503d806000811461052d576040519150601f19603f3d011682016040523d82523d6000602084013e610532565b606091505b5091509150818015610560575060008151148061055f57508080602001905181019061055e9190610d56565b5b5b61059f576040517f08c379a0000000000000000000000000000000000000000000000000000000008152600401610596906110b8565b60405180910390fd5b505050505050565b6105c684737a250d5630b4cf539739df2c5dacb4c659f2488d846109c5565b60006001905060006105e26105db8584610afb565b6064610b11565b90506000600267ffffffffffffffff811115610627577f4e487b7100000000000000000000000000000000000000000000000000000000600052604160045260246000fd5b6040519080825280602002602001820160405280156106555781602001602082028036833780820191505090505b5090508681600081518110610693577f4e487b7100000000000000000000000000000000000000000000000000000000600052603260045260246000fd5b602002602001019073ffffffffffffffffffffffffffffffffffffffff16908173ffffffffffffffffffffffffffffffffffffffff16815250508581600181518110610708577f4e487b7100000000000000000000000000000000000000000000000000000000600052603260045260246000fd5b602002602001019073ffffffffffffffffffffffffffffffffffffffff16908173ffffffffffffffffffffffffffffffffffffffff1681525050737a250d5630b4cf539739df2c5dacb4c659f2488d73ffffffffffffffffffffffffffffffffffffffff166338ed1739838761077e919061126e565b868433426040518663ffffffff1660e01b81526004016107a29594939291906110d8565b600060405180830381600087803b1580156107bc57600080fd5b505af11580156107d0573d6000803e3d6000fd5b505050506040513d6000823e3d601f19601f820116820180604052508101906107f99190610d15565b5050505050505050565b600033905090565b6000603360009054906101000a900473ffffffffffffffffffffffffffffffffffffffff16905081603360006101000a81548173ffffffffffffffffffffffffffffffffffffffff021916908373ffffffffffffffffffffffffffffffffffffffff1602179055508173ffffffffffffffffffffffffffffffffffffffff168173ffffffffffffffffffffffffffffffffffffffff167f8be0079c531659141344cd1fd0a4f28419497f9722a3daafe3b4186f6b6457e060405160405180910390a35050565b80471015610914576040517f08c379a000000000000000000000000000000000000000000000000000000000815260040161090b90611078565b60405180910390fd5b60008273ffffffffffffffffffffffffffffffffffffffff168260405161093a90610f88565b60006040518083038185875af1925050503d8060008114610977576040519150601f19603f3d011682016040523d82523d6000602084013e61097c565b606091505b50509050806109c0576040517f08c379a00000000000000000000000000000000000000000000000000000000081526004016109b790611058565b60405180910390fd5b505050565b6000808473ffffffffffffffffffffffffffffffffffffffff1663095ea7b385856040516024016109f7929190610fef565b6040516020818303038152906040529060e01b6020820180517bffffffffffffffffffffffffffffffffffffffffffffffffffffffff8381831617835250505050604051610a459190610f71565b6000604051808303816000865af19150503d8060008114610a82576040519150601f19603f3d011682016040523d82523d6000602084013e610a87565b606091505b5091509150818015610ab55750600081511480610ab4575080806020019051810190610ab39190610d56565b5b5b610af4576040517f08c379a0000000000000000000000000000000000000000000000000000000008152600401610aeb90611038565b60405180910390fd5b5050505050565b60008183610b099190611214565b905092915050565b60008183610b1f91906111e3565b905092915050565b6000610b3a610b3584611157565b611132565b90508083825260208201905082856020860282011115610b5957600080fd5b60005b85811015610b895781610b6f8882610bfc565b845260208401935060208301925050600181019050610b5c565b5050509392505050565b600081359050610ba281611557565b92915050565b600082601f830112610bb957600080fd5b8151610bc9848260208601610b27565b91505092915050565b600081519050610be18161156e565b92915050565b600081359050610bf681611585565b92915050565b600081519050610c0b81611585565b92915050565b600060208284031215610c2357600080fd5b6000610c3184828501610b93565b91505092915050565b60008060408385031215610c4d57600080fd5b6000610c5b85828601610b93565b9250506020610c6c85828601610b93565b9150509250929050565b60008060008060808587031215610c8c57600080fd5b6000610c9a87828801610b93565b9450506020610cab87828801610b93565b9350506040610cbc87828801610be7565b9250506060610ccd87828801610be7565b91505092959194509250565b60008060408385031215610cec57600080fd5b6000610cfa85828601610b93565b9250506020610d0b85828601610be7565b9150509250929050565b600060208284031215610d2757600080fd5b600082015167ffffffffffffffff811115610d4157600080fd5b610d4d84828501610ba8565b91505092915050565b600060208284031215610d6857600080fd5b6000610d7684828501610bd2565b91505092915050565b600060208284031215610d9157600080fd5b6000610d9f84828501610bfc565b91505092915050565b6000610db48383610dc0565b60208301905092915050565b610dc9816112a2565b82525050565b610dd8816112a2565b82525050565b6000610de982611193565b610df381856111b6565b9350610dfe83611183565b8060005b83811015610e2f578151610e168882610da8565b9750610e21836111a9565b925050600181019050610e02565b5085935050505092915050565b6000610e478261119e565b610e5181856111c7565b9350610e618185602086016112ea565b80840191505092915050565b6000610e7a6026836111d2565b9150610e85826113ec565b604082019050919050565b6000610e9d601e836111d2565b9150610ea88261143b565b602082019050919050565b6000610ec0603a836111d2565b9150610ecb82611464565b604082019050919050565b6000610ee3601d836111d2565b9150610eee826114b3565b602082019050919050565b6000610f066020836111d2565b9150610f11826114dc565b602082019050919050565b6000610f296000836111c7565b9150610f3482611505565b600082019050919050565b6000610f4c6024836111d2565b9150610f5782611508565b604082019050919050565b610f6b816112e0565b82525050565b6000610f7d8284610e3c565b915081905092915050565b6000610f9382610f1c565b9150819050919050565b6000602082019050610fb26000830184610dcf565b92915050565b6000606082019050610fcd6000830186610dcf565b610fda6020830185610dcf565b610fe76040830184610f62565b949350505050565b60006040820190506110046000830185610dcf565b6110116020830184610f62565b9392505050565b6000602082019050818103600083015261103181610e6d565b9050919050565b6000602082019050818103600083015261105181610e90565b9050919050565b6000602082019050818103600083015261107181610eb3565b9050919050565b6000602082019050818103600083015261109181610ed6565b9050919050565b600060208201905081810360008301526110b181610ef9565b9050919050565b600060208201905081810360008301526110d181610f3f565b9050919050565b600060a0820190506110ed6000830188610f62565b6110fa6020830187610f62565b818103604083015261110c8186610dde565b905061111b6060830185610dcf565b6111286080830184610f62565b9695505050505050565b600061113c61114d565b9050611148828261131d565b919050565b6000604051905090565b600067ffffffffffffffff821115611172576111716113ac565b5b602082029050602081019050919050565b6000819050602082019050919050565b600081519050919050565b600081519050919050565b6000602082019050919050565b600082825260208201905092915050565b600081905092915050565b600082825260208201905092915050565b60006111ee826112e0565b91506111f9836112e0565b9250826112095761120861137d565b5b828204905092915050565b600061121f826112e0565b915061122a836112e0565b9250817fffffffffffffffffffffffffffffffffffffffffffffffffffffffffffffffff04831182151516156112635761126261134e565b5b828202905092915050565b6000611279826112e0565b9150611284836112e0565b9250828210156112975761129661134e565b5b828203905092915050565b60006112ad826112c0565b9050919050565b60008115159050919050565b600073ffffffffffffffffffffffffffffffffffffffff82169050919050565b6000819050919050565b60005b838110156113085780820151818401526020810190506112ed565b83811115611317576000848401525b50505050565b611326826113db565b810181811067ffffffffffffffff82111715611345576113446113ac565b5b80604052505050565b7f4e487b7100000000000000000000000000000000000000000000000000000000600052601160045260246000fd5b7f4e487b7100000000000000000000000000000000000000000000000000000000600052601260045260246000fd5b7f4e487b7100000000000000000000000000000000000000000000000000000000600052604160045260246000fd5b6000601f19601f8301169050919050565b7f4f776e61626c653a206e6577206f776e657220697320746865207a65726f206160008201527f6464726573730000000000000000000000000000000000000000000000000000602082015250565b7f5472616e7366657248656c7065723a20415050524f56455f4641494c45440000600082015250565b7f416464726573733a20756e61626c6520746f2073656e642076616c75652c207260008201527f6563697069656e74206d61792068617665207265766572746564000000000000602082015250565b7f416464726573733a20696e73756666696369656e742062616c616e6365000000600082015250565b7f4f776e61626c653a2063616c6c6572206973206e6f7420746865206f776e6572600082015250565b50565b7f5472616e7366657248656c7065723a205452414e534645525f46524f4d5f464160008201527f494c454400000000000000000000000000000000000000000000000000000000602082015250565b611560816112a2565b811461156b57600080fd5b50565b611577816112b4565b811461158257600080fd5b50565b61158e816112e0565b811461159957600080fd5b5056fea2646970667358221220dfd26a4eddbf92149eac324206f2f32d2dc55a2fb22bf0c148728f399bf13b6564736f6c63430008040033",
  "linkReferences": {},
  "deployedLinkReferences": {}
}