{
  "_format": "hh-sol-artifact-1",
  "contractName": "Swap",
  "sourceName": "contracts/Swap.sol",
  "abi": [
    {
      "anonymous": false,
      "inputs": [
        {
          "indexed": true,
          "internalType": "address",
          "name": "previousOwner",
          "type": "address"
        },
        {
          "indexed": true,
          "internalType": "address",
          "name": "newOwner",
          "type": "address"
        }
      ],
      "name": "OwnershipTransferred",
      "type": "event"
    },
    {
      "inputs": [
        {
          "internalType": "address",
          "name": "_currency",
          "type": "address"
        }
      ],
      "name": "addPreferredCurrencyForFees",
      "outputs": [],
      "stateMutability": "nonpayable",
      "type": "function"
    },
    {
      "inputs": [],
      "name": "initialize",
      "outputs": [],
      "stateMutability": "nonpayable",
      "type": "function"
    },
    {
      "inputs": [],
      "name": "owner",
      "outputs": [
        {
          "internalType": "address",
          "name": "",
          "type": "address"
        }
      ],
      "stateMutability": "view",
      "type": "function"
    },
    {
      "inputs": [],
      "name": "renounceOwnership",
      "outputs": [],
      "stateMutability": "nonpayable",
      "type": "function"
    },
    {
      "inputs": [
        {
          "internalType": "address",
          "name": "_tokenIn",
          "type": "address"
        },
        {
          "internalType": "address",
          "name": "_tokenOut",
          "type": "address"
        },
        {
          "internalType": "uint256",
          "name": "_amountIn",
          "type": "uint256"
        },
        {
          "internalType": "uint256",
          "name": "_amountOutMin",
          "type": "uint256"
        }
      ],
      "name": "swapFromERC20",
      "outputs": [],
      "stateMutability": "nonpayable",
      "type": "function"
    },
    {
      "inputs": [
        {
          "internalType": "address",
          "name": "_tokenOut",
          "type": "address"
        },
        {
          "internalType": "uint256",
          "name": "_amountOutMin",
          "type": "uint256"
        }
      ],
      "name": "swapFromETH",
      "outputs": [],
      "stateMutability": "payable",
      "type": "function"
    },
    {
      "inputs": [
        {
          "internalType": "address",
          "name": "_tokenIn",
          "type": "address"
        },
        {
          "internalType": "uint256",
          "name": "_amountIn",
          "type": "uint256"
        },
        {
          "internalType": "uint256",
          "name": "_amountOutMin",
          "type": "uint256"
        }
      ],
      "name": "swapToETH",
      "outputs": [],
      "stateMutability": "nonpayable",
      "type": "function"
    },
    {
      "inputs": [
        {
          "internalType": "address",
          "name": "newOwner",
          "type": "address"
        }
      ],
      "name": "transferOwnership",
      "outputs": [],
      "stateMutability": "nonpayable",
      "type": "function"
    },
    {
      "inputs": [
        {
          "internalType": "address",
          "name": "_token",
          "type": "address"
        },
        {
          "internalType": "address",
          "name": "_recipient",
          "type": "address"
        }
      ],
      "name": "withdrawExoticFees",
      "outputs": [],
      "stateMutability": "nonpayable",
      "type": "function"
    },
    {
      "inputs": [],
      "name": "withdrawFees",
      "outputs": [],
      "stateMutability": "nonpayable",
      "type": "function"
    }
  ],
  "bytecode": "0x608060405234801561001057600080fd5b50612314806100206000396000f3fe6080604052600436106100915760003560e01c8063715018a611610059578063715018a6146101515780638129fc1c146101685780638da5cb5b1461017f578063eaa3db32146101aa578063f2fde38b146101c657610091565b80631256940b14610096578063144445c2146100bf5780633f9fe0c2146100e857806341d7b70714610111578063476343ee1461013a575b600080fd5b3480156100a257600080fd5b506100bd60048036038101906100b891906118cc565b6101ef565b005b3480156100cb57600080fd5b506100e660048036038101906100e191906118f5565b6102c6565b005b3480156100f457600080fd5b5061010f600480360381019061010a91906119d0565b610473565b005b34801561011d57600080fd5b5061013860048036038101906101339190611931565b6104c5565b005b34801561014657600080fd5b5061014f6104e4565b005b34801561015d57600080fd5b50610166610577565b005b34801561017457600080fd5b5061017d6105ff565b005b34801561018b57600080fd5b506101946108fc565b6040516101a19190611cca565b60405180910390f35b6101c460048036038101906101bf9190611994565b610926565b005b3480156101d257600080fd5b506101ed60048036038101906101e891906118cc565b610969565b005b6101f7610a61565b73ffffffffffffffffffffffffffffffffffffffff166102156108fc565b73ffffffffffffffffffffffffffffffffffffffff161461026b576040517f08c379a000000000000000000000000000000000000000000000000000000000815260040161026290611de5565b60405180910390fd5b6001606560008373ffffffffffffffffffffffffffffffffffffffff1673ffffffffffffffffffffffffffffffffffffffff16815260200190815260200160002060006101000a81548160ff02191690831515021790555050565b6102ce610a61565b73ffffffffffffffffffffffffffffffffffffffff166102ec6108fc565b73ffffffffffffffffffffffffffffffffffffffff1614610342576040517f08c379a000000000000000000000000000000000000000000000000000000000815260040161033990611de5565b60405180910390fd5b60008290506103da83308373ffffffffffffffffffffffffffffffffffffffff166370a08231306040518263ffffffff1660e01b81526004016103859190611cca565b60206040518083038186803b15801561039d57600080fd5b505afa1580156103b1573d6000803e3d6000fd5b505050506040513d601f19601f820116820180604052508101906103d59190611a89565b610a69565b61046e8330848473ffffffffffffffffffffffffffffffffffffffff166370a08231306040518263ffffffff1660e01b81526004016104199190611cca565b60206040518083038186803b15801561043157600080fd5b505afa158015610445573d6000803e3d6000fd5b505050506040513d601f19601f820116820180604052508101906104699190611a89565b610b9f565b505050565b60006104958473c778417e063141139fce010982780140aa0cd5ab8585610cd8565b90506104b573c778417e063141139fce010982780140aa0cd5ab82611303565b6104bf3382611303565b50505050565b6104d184333085610b9f565b6104dd84848484610cd8565b5050505050565b61050173c778417e063141139fce010982780140aa0cd5ab6113f7565b61051e733b00ef435fa4fcff5c209a37d1f3dcff37c705ad6113f7565b61053b73eb8f08a975ab53e34d8a0330e0d34de942c959266113f7565b61055873577d296678535e4903d59a4c929b718e1d575e0a6113f7565b61057573577d296678535e4903d59a4c929b718e1d575e0a6113f7565b565b61057f610a61565b73ffffffffffffffffffffffffffffffffffffffff1661059d6108fc565b73ffffffffffffffffffffffffffffffffffffffff16146105f3576040517f08c379a00000000000000000000000000000000000000000000000000000000081526004016105ea90611de5565b60405180910390fd5b6105fd60006115c7565b565b600060019054906101000a900460ff1680610625575060008054906101000a900460ff16155b610664576040517f08c379a000000000000000000000000000000000000000000000000000000000815260040161065b90611dc5565b60405180910390fd5b60008060019054906101000a900460ff1615905080156106b4576001600060016101000a81548160ff02191690831515021790555060016000806101000a81548160ff0219169083151502179055505b6106bc61168d565b600160656000733b00ef435fa4fcff5c209a37d1f3dcff37c705ad73ffffffffffffffffffffffffffffffffffffffff1673ffffffffffffffffffffffffffffffffffffffff16815260200190815260200160002060006101000a81548160ff02191690831515021790555060016065600073eb8f08a975ab53e34d8a0330e0d34de942c9592673ffffffffffffffffffffffffffffffffffffffff1673ffffffffffffffffffffffffffffffffffffffff16815260200190815260200160002060006101000a81548160ff02191690831515021790555060016065600073c3dbf84abb494ce5199d5d4d815b10ec29529ff873ffffffffffffffffffffffffffffffffffffffff1673ffffffffffffffffffffffffffffffffffffffff16815260200190815260200160002060006101000a81548160ff02191690831515021790555060016065600073577d296678535e4903d59a4c929b718e1d575e0a73ffffffffffffffffffffffffffffffffffffffff1673ffffffffffffffffffffffffffffffffffffffff16815260200190815260200160002060006101000a81548160ff02191690831515021790555060016065600073c778417e063141139fce010982780140aa0cd5ab73ffffffffffffffffffffffffffffffffffffffff1673ffffffffffffffffffffffffffffffffffffffff16815260200190815260200160002060006101000a81548160ff02191690831515021790555080156108f95760008060016101000a81548160ff0219169083151502179055505b50565b6000603360009054906101000a900473ffffffffffffffffffffffffffffffffffffffff16905090565b61094473c778417e063141139fce010982780140aa0cd5ab34611303565b61096473c778417e063141139fce010982780140aa0cd5ab833484610cd8565b505050565b610971610a61565b73ffffffffffffffffffffffffffffffffffffffff1661098f6108fc565b73ffffffffffffffffffffffffffffffffffffffff16146109e5576040517f08c379a00000000000000000000000000000000000000000000000000000000081526004016109dc90611de5565b60405180910390fd5b600073ffffffffffffffffffffffffffffffffffffffff168173ffffffffffffffffffffffffffffffffffffffff161415610a55576040517f08c379a0000000000000000000000000000000000000000000000000000000008152600401610a4c90611d45565b60405180910390fd5b610a5e816115c7565b50565b600033905090565b6000808473ffffffffffffffffffffffffffffffffffffffff1663095ea7b38585604051602401610a9b929190611d1c565b6040516020818303038152906040529060e01b6020820180517bffffffffffffffffffffffffffffffffffffffffffffffffffffffff8381831617835250505050604051610ae99190611c9e565b6000604051808303816000865af19150503d8060008114610b26576040519150601f19603f3d011682016040523d82523d6000602084013e610b2b565b606091505b5091509150818015610b595750600081511480610b58575080806020019051810190610b579190611a60565b5b5b610b98576040517f08c379a0000000000000000000000000000000000000000000000000000000008152600401610b8f90611d65565b60405180910390fd5b5050505050565b6000808573ffffffffffffffffffffffffffffffffffffffff166323b872dd868686604051602401610bd393929190611ce5565b6040516020818303038152906040529060e01b6020820180517bffffffffffffffffffffffffffffffffffffffffffffffffffffffff8381831617835250505050604051610c219190611c9e565b6000604051808303816000865af19150503d8060008114610c5e576040519150601f19603f3d011682016040523d82523d6000602084013e610c63565b606091505b5091509150818015610c915750600081511480610c90575080806020019051810190610c8f9190611a60565b5b5b610cd0576040517f08c379a0000000000000000000000000000000000000000000000000000000008152600401610cc790611e05565b60405180910390fd5b505050505050565b6000610cf985737a250d5630b4cf539739df2c5dacb4c659f2488d85610a69565b606073c778417e063141139fce010982780140aa0cd5ab73ffffffffffffffffffffffffffffffffffffffff168673ffffffffffffffffffffffffffffffffffffffff161480610d88575073c778417e063141139fce010982780140aa0cd5ab73ffffffffffffffffffffffffffffffffffffffff168573ffffffffffffffffffffffffffffffffffffffff16145b15610eee57600267ffffffffffffffff811115610dce577f4e487b7100000000000000000000000000000000000000000000000000000000600052604160045260246000fd5b604051908082528060200260200182016040528015610dfc5781602001602082028036833780820191505090505b5090508581600081518110610e3a577f4e487b7100000000000000000000000000000000000000000000000000000000600052603260045260246000fd5b602002602001019073ffffffffffffffffffffffffffffffffffffffff16908173ffffffffffffffffffffffffffffffffffffffff16815250508481600181518110610eaf577f4e487b7100000000000000000000000000000000000000000000000000000000600052603260045260246000fd5b602002602001019073ffffffffffffffffffffffffffffffffffffffff16908173ffffffffffffffffffffffffffffffffffffffff16815250506110d4565b600367ffffffffffffffff811115610f2f577f4e487b7100000000000000000000000000000000000000000000000000000000600052604160045260246000fd5b604051908082528060200260200182016040528015610f5d5781602001602082028036833780820191505090505b5090508581600081518110610f9b577f4e487b7100000000000000000000000000000000000000000000000000000000600052603260045260246000fd5b602002602001019073ffffffffffffffffffffffffffffffffffffffff16908173ffffffffffffffffffffffffffffffffffffffff168152505073c778417e063141139fce010982780140aa0cd5ab81600181518110611024577f4e487b7100000000000000000000000000000000000000000000000000000000600052603260045260246000fd5b602002602001019073ffffffffffffffffffffffffffffffffffffffff16908173ffffffffffffffffffffffffffffffffffffffff16815250508481600281518110611099577f4e487b7100000000000000000000000000000000000000000000000000000000600052603260045260246000fd5b602002602001019073ffffffffffffffffffffffffffffffffffffffff16908173ffffffffffffffffffffffffffffffffffffffff16815250505b6110dd86611776565b156111af5760006110ef8560c86117cc565b9050737a250d5630b4cf539739df2c5dacb4c659f2488d73ffffffffffffffffffffffffffffffffffffffff166338ed1739828761112d9190611f61565b868533426040518663ffffffff1660e01b8152600401611151959493929190611e25565b600060405180830381600087803b15801561116b57600080fd5b505af115801561117f573d6000803e3d6000fd5b505050506040513d6000823e3d601f19601f820116820180604052508101906111a89190611a1f565b50506112f9565b6000737a250d5630b4cf539739df2c5dacb4c659f2488d73ffffffffffffffffffffffffffffffffffffffff166338ed173986868530426040518663ffffffff1660e01b8152600401611206959493929190611e25565b600060405180830381600087803b15801561122057600080fd5b505af1158015611234573d6000803e3d6000fd5b505050506040513d6000823e3d601f19601f8201168201806040525081019061125d9190611a1f565b9050600081600183516112709190611f61565b815181106112a7577f4e487b7100000000000000000000000000000000000000000000000000000000600052603260045260246000fd5b6020026020010151905060006112be8260c86117cc565b90506112d6883083856112d19190611f61565b610a69565b6112ed88303384866112e89190611f61565b610b9f565b819450505050506112fb565b505b949350505050565b80471015611346576040517f08c379a000000000000000000000000000000000000000000000000000000000815260040161133d90611da5565b60405180910390fd5b60008273ffffffffffffffffffffffffffffffffffffffff168260405161136c90611cb5565b60006040518083038185875af1925050503d80600081146113a9576040519150601f19603f3d011682016040523d82523d6000602084013e6113ae565b606091505b50509050806113f2576040517f08c379a00000000000000000000000000000000000000000000000000000000081526004016113e990611d85565b60405180910390fd5b505050565b60008190506103e88173ffffffffffffffffffffffffffffffffffffffff166370a08231306040518263ffffffff1660e01b81526004016114389190611cca565b60206040518083038186803b15801561145057600080fd5b505afa158015611464573d6000803e3d6000fd5b505050506040513d601f19601f820116820180604052508101906114889190611a89565b101561149457506115c4565b61152782308373ffffffffffffffffffffffffffffffffffffffff166370a08231306040518263ffffffff1660e01b81526004016114d29190611cca565b60206040518083038186803b1580156114ea57600080fd5b505afa1580156114fe573d6000803e3d6000fd5b505050506040513d601f19601f820116820180604052508101906115229190611a89565b610a69565b6115c282306115346108fc565b8473ffffffffffffffffffffffffffffffffffffffff166370a08231306040518263ffffffff1660e01b815260040161156d9190611cca565b60206040518083038186803b15801561158557600080fd5b505afa158015611599573d6000803e3d6000fd5b505050506040513d601f19601f820116820180604052508101906115bd9190611a89565b610b9f565b505b50565b6000603360009054906101000a900473ffffffffffffffffffffffffffffffffffffffff16905081603360006101000a81548173ffffffffffffffffffffffffffffffffffffffff021916908373ffffffffffffffffffffffffffffffffffffffff1602179055508173ffffffffffffffffffffffffffffffffffffffff168173ffffffffffffffffffffffffffffffffffffffff167f8be0079c531659141344cd1fd0a4f28419497f9722a3daafe3b4186f6b6457e060405160405180910390a35050565b600060019054906101000a900460ff16806116b3575060008054906101000a900460ff16155b6116f2576040517f08c379a00000000000000000000000000000000000000000000000000000000081526004016116e990611dc5565b60405180910390fd5b60008060019054906101000a900460ff161590508015611742576001600060016101000a81548160ff02191690831515021790555060016000806101000a81548160ff0219169083151502179055505b61175261174d610a61565b6115c7565b80156117735760008060016101000a81548160ff0219169083151502179055505b50565b6000606560008373ffffffffffffffffffffffffffffffffffffffff1673ffffffffffffffffffffffffffffffffffffffff16815260200190815260200160002060009054906101000a900460ff169050919050565b600081836117da9190611f30565b905092915050565b60006117f56117f084611ea4565b611e7f565b9050808382526020820190508285602086028201111561181457600080fd5b60005b85811015611844578161182a88826118b7565b845260208401935060208301925050600181019050611817565b5050509392505050565b60008135905061185d81612299565b92915050565b600082601f83011261187457600080fd5b81516118848482602086016117e2565b91505092915050565b60008151905061189c816122b0565b92915050565b6000813590506118b1816122c7565b92915050565b6000815190506118c6816122c7565b92915050565b6000602082840312156118de57600080fd5b60006118ec8482850161184e565b91505092915050565b6000806040838503121561190857600080fd5b60006119168582860161184e565b92505060206119278582860161184e565b9150509250929050565b6000806000806080858703121561194757600080fd5b60006119558782880161184e565b94505060206119668782880161184e565b9350506040611977878288016118a2565b9250506060611988878288016118a2565b91505092959194509250565b600080604083850312156119a757600080fd5b60006119b58582860161184e565b92505060206119c6858286016118a2565b9150509250929050565b6000806000606084860312156119e557600080fd5b60006119f38682870161184e565b9350506020611a04868287016118a2565b9250506040611a15868287016118a2565b9150509250925092565b600060208284031215611a3157600080fd5b600082015167ffffffffffffffff811115611a4b57600080fd5b611a5784828501611863565b91505092915050565b600060208284031215611a7257600080fd5b6000611a808482850161188d565b91505092915050565b600060208284031215611a9b57600080fd5b6000611aa9848285016118b7565b91505092915050565b6000611abe8383611aca565b60208301905092915050565b611ad381611f95565b82525050565b611ae281611f95565b82525050565b6000611af382611ee0565b611afd8185611f03565b9350611b0883611ed0565b8060005b83811015611b39578151611b208882611ab2565b9750611b2b83611ef6565b925050600181019050611b0c565b5085935050505092915050565b6000611b5182611eeb565b611b5b8185611f14565b9350611b6b818560208601611fdd565b80840191505092915050565b6000611b84602683611f1f565b9150611b8f826120df565b604082019050919050565b6000611ba7601e83611f1f565b9150611bb28261212e565b602082019050919050565b6000611bca603a83611f1f565b9150611bd582612157565b604082019050919050565b6000611bed601d83611f1f565b9150611bf8826121a6565b602082019050919050565b6000611c10602e83611f1f565b9150611c1b826121cf565b604082019050919050565b6000611c33602083611f1f565b9150611c3e8261221e565b602082019050919050565b6000611c56600083611f14565b9150611c6182612247565b600082019050919050565b6000611c79602483611f1f565b9150611c848261224a565b604082019050919050565b611c9881611fd3565b82525050565b6000611caa8284611b46565b915081905092915050565b6000611cc082611c49565b9150819050919050565b6000602082019050611cdf6000830184611ad9565b92915050565b6000606082019050611cfa6000830186611ad9565b611d076020830185611ad9565b611d146040830184611c8f565b949350505050565b6000604082019050611d316000830185611ad9565b611d3e6020830184611c8f565b9392505050565b60006020820190508181036000830152611d5e81611b77565b9050919050565b60006020820190508181036000830152611d7e81611b9a565b9050919050565b60006020820190508181036000830152611d9e81611bbd565b9050919050565b60006020820190508181036000830152611dbe81611be0565b9050919050565b60006020820190508181036000830152611dde81611c03565b9050919050565b60006020820190508181036000830152611dfe81611c26565b9050919050565b60006020820190508181036000830152611e1e81611c6c565b9050919050565b600060a082019050611e3a6000830188611c8f565b611e476020830187611c8f565b8181036040830152611e598186611ae8565b9050611e686060830185611ad9565b611e756080830184611c8f565b9695505050505050565b6000611e89611e9a565b9050611e958282612010565b919050565b6000604051905090565b600067ffffffffffffffff821115611ebf57611ebe61209f565b5b602082029050602081019050919050565b6000819050602082019050919050565b600081519050919050565b600081519050919050565b6000602082019050919050565b600082825260208201905092915050565b600081905092915050565b600082825260208201905092915050565b6000611f3b82611fd3565b9150611f4683611fd3565b925082611f5657611f55612070565b5b828204905092915050565b6000611f6c82611fd3565b9150611f7783611fd3565b925082821015611f8a57611f89612041565b5b828203905092915050565b6000611fa082611fb3565b9050919050565b60008115159050919050565b600073ffffffffffffffffffffffffffffffffffffffff82169050919050565b6000819050919050565b60005b83811015611ffb578082015181840152602081019050611fe0565b8381111561200a576000848401525b50505050565b612019826120ce565b810181811067ffffffffffffffff821117156120385761203761209f565b5b80604052505050565b7f4e487b7100000000000000000000000000000000000000000000000000000000600052601160045260246000fd5b7f4e487b7100000000000000000000000000000000000000000000000000000000600052601260045260246000fd5b7f4e487b7100000000000000000000000000000000000000000000000000000000600052604160045260246000fd5b6000601f19601f8301169050919050565b7f4f776e61626c653a206e6577206f776e657220697320746865207a65726f206160008201527f6464726573730000000000000000000000000000000000000000000000000000602082015250565b7f5472616e7366657248656c7065723a20415050524f56455f4641494c45440000600082015250565b7f416464726573733a20756e61626c6520746f2073656e642076616c75652c207260008201527f6563697069656e74206d61792068617665207265766572746564000000000000602082015250565b7f416464726573733a20696e73756666696369656e742062616c616e6365000000600082015250565b7f496e697469616c697a61626c653a20636f6e747261637420697320616c72656160008201527f647920696e697469616c697a6564000000000000000000000000000000000000602082015250565b7f4f776e61626c653a2063616c6c6572206973206e6f7420746865206f776e6572600082015250565b50565b7f5472616e7366657248656c7065723a205452414e534645525f46524f4d5f464160008201527f494c454400000000000000000000000000000000000000000000000000000000602082015250565b6122a281611f95565b81146122ad57600080fd5b50565b6122b981611fa7565b81146122c457600080fd5b50565b6122d081611fd3565b81146122db57600080fd5b5056fea26469706673582212206c8a128c6e67d60e6276ba82688f7c64bf8de8d864323433267553cefc6531a964736f6c63430008040033",
  "linkReferences": {},
  "deployedLinkReferences": {}
}