{
  "_format": "hh-sol-artifact-1",
  "contractName": "Swap",
  "sourceName": "contracts/Swap.sol",
  "abi": [
    {
      "anonymous": false,
      "inputs": [
        {
          "indexed": true,
          "internalType": "address",
          "name": "previousOwner",
          "type": "address"
        },
        {
          "indexed": true,
          "internalType": "address",
          "name": "newOwner",
          "type": "address"
        }
      ],
      "name": "OwnershipTransferred",
      "type": "event"
    },
    {
      "inputs": [
        {
          "internalType": "address",
          "name": "_currency",
          "type": "address"
        }
      ],
      "name": "addPreferredCurrencyForFees",
      "outputs": [],
      "stateMutability": "nonpayable",
      "type": "function"
    },
    {
      "inputs": [],
      "name": "initialize",
      "outputs": [],
      "stateMutability": "nonpayable",
      "type": "function"
    },
    {
      "inputs": [],
      "name": "owner",
      "outputs": [
        {
          "internalType": "address",
          "name": "",
          "type": "address"
        }
      ],
      "stateMutability": "view",
      "type": "function"
    },
    {
      "inputs": [],
      "name": "renounceOwnership",
      "outputs": [],
      "stateMutability": "nonpayable",
      "type": "function"
    },
    {
      "inputs": [
        {
          "internalType": "address",
          "name": "_tokenIn",
          "type": "address"
        },
        {
          "internalType": "address",
          "name": "_tokenOut",
          "type": "address"
        },
        {
          "internalType": "uint256",
          "name": "_amountIn",
          "type": "uint256"
        },
        {
          "internalType": "uint256",
          "name": "_amountOutMin",
          "type": "uint256"
        }
      ],
      "name": "swapFromERC20",
      "outputs": [],
      "stateMutability": "nonpayable",
      "type": "function"
    },
    {
      "inputs": [
        {
          "internalType": "address",
          "name": "_tokenOut",
          "type": "address"
        },
        {
          "internalType": "uint256",
          "name": "_amountOutMin",
          "type": "uint256"
        }
      ],
      "name": "swapFromETH",
      "outputs": [],
      "stateMutability": "payable",
      "type": "function"
    },
    {
      "inputs": [
        {
          "internalType": "address",
          "name": "_tokenIn",
          "type": "address"
        },
        {
          "internalType": "uint256",
          "name": "_amountIn",
          "type": "uint256"
        },
        {
          "internalType": "uint256",
          "name": "_amountOutMin",
          "type": "uint256"
        }
      ],
      "name": "swapToETH",
      "outputs": [],
      "stateMutability": "nonpayable",
      "type": "function"
    },
    {
      "inputs": [
        {
          "internalType": "address",
          "name": "newOwner",
          "type": "address"
        }
      ],
      "name": "transferOwnership",
      "outputs": [],
      "stateMutability": "nonpayable",
      "type": "function"
    },
    {
      "inputs": [
        {
          "internalType": "address",
          "name": "_token",
          "type": "address"
        },
        {
          "internalType": "address",
          "name": "_recipient",
          "type": "address"
        }
      ],
      "name": "withdrawExoticFees",
      "outputs": [],
      "stateMutability": "nonpayable",
      "type": "function"
    },
    {
      "inputs": [],
      "name": "withdrawFees",
      "outputs": [],
      "stateMutability": "nonpayable",
      "type": "function"
    }
  ],
  "bytecode": "0x608060405234801561001057600080fd5b506122c7806100206000396000f3fe6080604052600436106100915760003560e01c8063715018a611610059578063715018a6146101515780638129fc1c146101685780638da5cb5b1461017f578063eaa3db32146101aa578063f2fde38b146101c657610091565b80631256940b14610096578063144445c2146100bf5780633f9fe0c2146100e857806341d7b70714610111578063476343ee1461013a575b600080fd5b3480156100a257600080fd5b506100bd60048036038101906100b8919061187f565b6101ef565b005b3480156100cb57600080fd5b506100e660048036038101906100e191906118a8565b6102c6565b005b3480156100f457600080fd5b5061010f600480360381019061010a9190611983565b610473565b005b34801561011d57600080fd5b50610138600480360381019061013391906118e4565b610478565b005b34801561014657600080fd5b5061014f610497565b005b34801561015d57600080fd5b5061016661052a565b005b34801561017457600080fd5b5061017d6105b2565b005b34801561018b57600080fd5b506101946108af565b6040516101a19190611c7d565b60405180910390f35b6101c460048036038101906101bf9190611947565b6108d9565b005b3480156101d257600080fd5b506101ed60048036038101906101e8919061187f565b61091c565b005b6101f7610a14565b73ffffffffffffffffffffffffffffffffffffffff166102156108af565b73ffffffffffffffffffffffffffffffffffffffff161461026b576040517f08c379a000000000000000000000000000000000000000000000000000000000815260040161026290611d98565b60405180910390fd5b6001606560008373ffffffffffffffffffffffffffffffffffffffff1673ffffffffffffffffffffffffffffffffffffffff16815260200190815260200160002060006101000a81548160ff02191690831515021790555050565b6102ce610a14565b73ffffffffffffffffffffffffffffffffffffffff166102ec6108af565b73ffffffffffffffffffffffffffffffffffffffff1614610342576040517f08c379a000000000000000000000000000000000000000000000000000000000815260040161033990611d98565b60405180910390fd5b60008290506103da83308373ffffffffffffffffffffffffffffffffffffffff166370a08231306040518263ffffffff1660e01b81526004016103859190611c7d565b60206040518083038186803b15801561039d57600080fd5b505afa1580156103b1573d6000803e3d6000fd5b505050506040513d601f19601f820116820180604052508101906103d59190611a3c565b610a1c565b61046e8330848473ffffffffffffffffffffffffffffffffffffffff166370a08231306040518263ffffffff1660e01b81526004016104199190611c7d565b60206040518083038186803b15801561043157600080fd5b505afa158015610445573d6000803e3d6000fd5b505050506040513d601f19601f820116820180604052508101906104699190611a3c565b610b52565b505050565b505050565b61048484333085610b52565b61049084848484610c8b565b5050505050565b6104b473c778417e063141139fce010982780140aa0cd5ab6112b6565b6104d1733b00ef435fa4fcff5c209a37d1f3dcff37c705ad6112b6565b6104ee73eb8f08a975ab53e34d8a0330e0d34de942c959266112b6565b61050b73c3dbf84abb494ce5199d5d4d815b10ec29529ff86112b6565b61052873577d296678535e4903d59a4c929b718e1d575e0a6112b6565b565b610532610a14565b73ffffffffffffffffffffffffffffffffffffffff166105506108af565b73ffffffffffffffffffffffffffffffffffffffff16146105a6576040517f08c379a000000000000000000000000000000000000000000000000000000000815260040161059d90611d98565b60405180910390fd5b6105b06000611486565b565b600060019054906101000a900460ff16806105d8575060008054906101000a900460ff16155b610617576040517f08c379a000000000000000000000000000000000000000000000000000000000815260040161060e90611d78565b60405180910390fd5b60008060019054906101000a900460ff161590508015610667576001600060016101000a81548160ff02191690831515021790555060016000806101000a81548160ff0219169083151502179055505b61066f61154c565b600160656000733b00ef435fa4fcff5c209a37d1f3dcff37c705ad73ffffffffffffffffffffffffffffffffffffffff1673ffffffffffffffffffffffffffffffffffffffff16815260200190815260200160002060006101000a81548160ff02191690831515021790555060016065600073eb8f08a975ab53e34d8a0330e0d34de942c9592673ffffffffffffffffffffffffffffffffffffffff1673ffffffffffffffffffffffffffffffffffffffff16815260200190815260200160002060006101000a81548160ff02191690831515021790555060016065600073c3dbf84abb494ce5199d5d4d815b10ec29529ff873ffffffffffffffffffffffffffffffffffffffff1673ffffffffffffffffffffffffffffffffffffffff16815260200190815260200160002060006101000a81548160ff02191690831515021790555060016065600073577d296678535e4903d59a4c929b718e1d575e0a73ffffffffffffffffffffffffffffffffffffffff1673ffffffffffffffffffffffffffffffffffffffff16815260200190815260200160002060006101000a81548160ff02191690831515021790555060016065600073c778417e063141139fce010982780140aa0cd5ab73ffffffffffffffffffffffffffffffffffffffff1673ffffffffffffffffffffffffffffffffffffffff16815260200190815260200160002060006101000a81548160ff02191690831515021790555080156108ac5760008060016101000a81548160ff0219169083151502179055505b50565b6000603360009054906101000a900473ffffffffffffffffffffffffffffffffffffffff16905090565b6108f773c778417e063141139fce010982780140aa0cd5ab34611635565b61091773c778417e063141139fce010982780140aa0cd5ab833484610c8b565b505050565b610924610a14565b73ffffffffffffffffffffffffffffffffffffffff166109426108af565b73ffffffffffffffffffffffffffffffffffffffff1614610998576040517f08c379a000000000000000000000000000000000000000000000000000000000815260040161098f90611d98565b60405180910390fd5b600073ffffffffffffffffffffffffffffffffffffffff168173ffffffffffffffffffffffffffffffffffffffff161415610a08576040517f08c379a00000000000000000000000000000000000000000000000000000000081526004016109ff90611cf8565b60405180910390fd5b610a1181611486565b50565b600033905090565b6000808473ffffffffffffffffffffffffffffffffffffffff1663095ea7b38585604051602401610a4e929190611ccf565b6040516020818303038152906040529060e01b6020820180517bffffffffffffffffffffffffffffffffffffffffffffffffffffffff8381831617835250505050604051610a9c9190611c51565b6000604051808303816000865af19150503d8060008114610ad9576040519150601f19603f3d011682016040523d82523d6000602084013e610ade565b606091505b5091509150818015610b0c5750600081511480610b0b575080806020019051810190610b0a9190611a13565b5b5b610b4b576040517f08c379a0000000000000000000000000000000000000000000000000000000008152600401610b4290611d18565b60405180910390fd5b5050505050565b6000808573ffffffffffffffffffffffffffffffffffffffff166323b872dd868686604051602401610b8693929190611c98565b6040516020818303038152906040529060e01b6020820180517bffffffffffffffffffffffffffffffffffffffffffffffffffffffff8381831617835250505050604051610bd49190611c51565b6000604051808303816000865af19150503d8060008114610c11576040519150601f19603f3d011682016040523d82523d6000602084013e610c16565b606091505b5091509150818015610c445750600081511480610c43575080806020019051810190610c429190611a13565b5b5b610c83576040517f08c379a0000000000000000000000000000000000000000000000000000000008152600401610c7a90611db8565b60405180910390fd5b505050505050565b6000610cac85737a250d5630b4cf539739df2c5dacb4c659f2488d85610a1c565b606073c778417e063141139fce010982780140aa0cd5ab73ffffffffffffffffffffffffffffffffffffffff168673ffffffffffffffffffffffffffffffffffffffff161480610d3b575073c778417e063141139fce010982780140aa0cd5ab73ffffffffffffffffffffffffffffffffffffffff168573ffffffffffffffffffffffffffffffffffffffff16145b15610ea157600267ffffffffffffffff811115610d81577f4e487b7100000000000000000000000000000000000000000000000000000000600052604160045260246000fd5b604051908082528060200260200182016040528015610daf5781602001602082028036833780820191505090505b5090508581600081518110610ded577f4e487b7100000000000000000000000000000000000000000000000000000000600052603260045260246000fd5b602002602001019073ffffffffffffffffffffffffffffffffffffffff16908173ffffffffffffffffffffffffffffffffffffffff16815250508481600181518110610e62577f4e487b7100000000000000000000000000000000000000000000000000000000600052603260045260246000fd5b602002602001019073ffffffffffffffffffffffffffffffffffffffff16908173ffffffffffffffffffffffffffffffffffffffff1681525050611087565b600367ffffffffffffffff811115610ee2577f4e487b7100000000000000000000000000000000000000000000000000000000600052604160045260246000fd5b604051908082528060200260200182016040528015610f105781602001602082028036833780820191505090505b5090508581600081518110610f4e577f4e487b7100000000000000000000000000000000000000000000000000000000600052603260045260246000fd5b602002602001019073ffffffffffffffffffffffffffffffffffffffff16908173ffffffffffffffffffffffffffffffffffffffff168152505073c778417e063141139fce010982780140aa0cd5ab81600181518110610fd7577f4e487b7100000000000000000000000000000000000000000000000000000000600052603260045260246000fd5b602002602001019073ffffffffffffffffffffffffffffffffffffffff16908173ffffffffffffffffffffffffffffffffffffffff1681525050848160028151811061104c577f4e487b7100000000000000000000000000000000000000000000000000000000600052603260045260246000fd5b602002602001019073ffffffffffffffffffffffffffffffffffffffff16908173ffffffffffffffffffffffffffffffffffffffff16815250505b61109086611729565b156111625760006110a28560c861177f565b9050737a250d5630b4cf539739df2c5dacb4c659f2488d73ffffffffffffffffffffffffffffffffffffffff166338ed173982876110e09190611f14565b868533426040518663ffffffff1660e01b8152600401611104959493929190611dd8565b600060405180830381600087803b15801561111e57600080fd5b505af1158015611132573d6000803e3d6000fd5b505050506040513d6000823e3d601f19601f8201168201806040525081019061115b91906119d2565b50506112ac565b6000737a250d5630b4cf539739df2c5dacb4c659f2488d73ffffffffffffffffffffffffffffffffffffffff166338ed173986868530426040518663ffffffff1660e01b81526004016111b9959493929190611dd8565b600060405180830381600087803b1580156111d357600080fd5b505af11580156111e7573d6000803e3d6000fd5b505050506040513d6000823e3d601f19601f8201168201806040525081019061121091906119d2565b9050600081600183516112239190611f14565b8151811061125a577f4e487b7100000000000000000000000000000000000000000000000000000000600052603260045260246000fd5b6020026020010151905060006112718260c861177f565b9050611289883083856112849190611f14565b610a1c565b6112a0883033848661129b9190611f14565b610b52565b819450505050506112ae565b505b949350505050565b60008190506103e88173ffffffffffffffffffffffffffffffffffffffff166370a08231306040518263ffffffff1660e01b81526004016112f79190611c7d565b60206040518083038186803b15801561130f57600080fd5b505afa158015611323573d6000803e3d6000fd5b505050506040513d601f19601f820116820180604052508101906113479190611a3c565b10156113535750611483565b6113e682308373ffffffffffffffffffffffffffffffffffffffff166370a08231306040518263ffffffff1660e01b81526004016113919190611c7d565b60206040518083038186803b1580156113a957600080fd5b505afa1580156113bd573d6000803e3d6000fd5b505050506040513d601f19601f820116820180604052508101906113e19190611a3c565b610a1c565b61148182306113f36108af565b8473ffffffffffffffffffffffffffffffffffffffff166370a08231306040518263ffffffff1660e01b815260040161142c9190611c7d565b60206040518083038186803b15801561144457600080fd5b505afa158015611458573d6000803e3d6000fd5b505050506040513d601f19601f8201168201806040525081019061147c9190611a3c565b610b52565b505b50565b6000603360009054906101000a900473ffffffffffffffffffffffffffffffffffffffff16905081603360006101000a81548173ffffffffffffffffffffffffffffffffffffffff021916908373ffffffffffffffffffffffffffffffffffffffff1602179055508173ffffffffffffffffffffffffffffffffffffffff168173ffffffffffffffffffffffffffffffffffffffff167f8be0079c531659141344cd1fd0a4f28419497f9722a3daafe3b4186f6b6457e060405160405180910390a35050565b600060019054906101000a900460ff1680611572575060008054906101000a900460ff16155b6115b1576040517f08c379a00000000000000000000000000000000000000000000000000000000081526004016115a890611d78565b60405180910390fd5b60008060019054906101000a900460ff161590508015611601576001600060016101000a81548160ff02191690831515021790555060016000806101000a81548160ff0219169083151502179055505b61161161160c610a14565b611486565b80156116325760008060016101000a81548160ff0219169083151502179055505b50565b80471015611678576040517f08c379a000000000000000000000000000000000000000000000000000000000815260040161166f90611d58565b60405180910390fd5b60008273ffffffffffffffffffffffffffffffffffffffff168260405161169e90611c68565b60006040518083038185875af1925050503d80600081146116db576040519150601f19603f3d011682016040523d82523d6000602084013e6116e0565b606091505b5050905080611724576040517f08c379a000000000000000000000000000000000000000000000000000000000815260040161171b90611d38565b60405180910390fd5b505050565b6000606560008373ffffffffffffffffffffffffffffffffffffffff1673ffffffffffffffffffffffffffffffffffffffff16815260200190815260200160002060009054906101000a900460ff169050919050565b6000818361178d9190611ee3565b905092915050565b60006117a86117a384611e57565b611e32565b905080838252602082019050828560208602820111156117c757600080fd5b60005b858110156117f757816117dd888261186a565b8452602084019350602083019250506001810190506117ca565b5050509392505050565b6000813590506118108161224c565b92915050565b600082601f83011261182757600080fd5b8151611837848260208601611795565b91505092915050565b60008151905061184f81612263565b92915050565b6000813590506118648161227a565b92915050565b6000815190506118798161227a565b92915050565b60006020828403121561189157600080fd5b600061189f84828501611801565b91505092915050565b600080604083850312156118bb57600080fd5b60006118c985828601611801565b92505060206118da85828601611801565b9150509250929050565b600080600080608085870312156118fa57600080fd5b600061190887828801611801565b945050602061191987828801611801565b935050604061192a87828801611855565b925050606061193b87828801611855565b91505092959194509250565b6000806040838503121561195a57600080fd5b600061196885828601611801565b925050602061197985828601611855565b9150509250929050565b60008060006060848603121561199857600080fd5b60006119a686828701611801565b93505060206119b786828701611855565b92505060406119c886828701611855565b9150509250925092565b6000602082840312156119e457600080fd5b600082015167ffffffffffffffff8111156119fe57600080fd5b611a0a84828501611816565b91505092915050565b600060208284031215611a2557600080fd5b6000611a3384828501611840565b91505092915050565b600060208284031215611a4e57600080fd5b6000611a5c8482850161186a565b91505092915050565b6000611a718383611a7d565b60208301905092915050565b611a8681611f48565b82525050565b611a9581611f48565b82525050565b6000611aa682611e93565b611ab08185611eb6565b9350611abb83611e83565b8060005b83811015611aec578151611ad38882611a65565b9750611ade83611ea9565b925050600181019050611abf565b5085935050505092915050565b6000611b0482611e9e565b611b0e8185611ec7565b9350611b1e818560208601611f90565b80840191505092915050565b6000611b37602683611ed2565b9150611b4282612092565b604082019050919050565b6000611b5a601e83611ed2565b9150611b65826120e1565b602082019050919050565b6000611b7d603a83611ed2565b9150611b888261210a565b604082019050919050565b6000611ba0601d83611ed2565b9150611bab82612159565b602082019050919050565b6000611bc3602e83611ed2565b9150611bce82612182565b604082019050919050565b6000611be6602083611ed2565b9150611bf1826121d1565b602082019050919050565b6000611c09600083611ec7565b9150611c14826121fa565b600082019050919050565b6000611c2c602483611ed2565b9150611c37826121fd565b604082019050919050565b611c4b81611f86565b82525050565b6000611c5d8284611af9565b915081905092915050565b6000611c7382611bfc565b9150819050919050565b6000602082019050611c926000830184611a8c565b92915050565b6000606082019050611cad6000830186611a8c565b611cba6020830185611a8c565b611cc76040830184611c42565b949350505050565b6000604082019050611ce46000830185611a8c565b611cf16020830184611c42565b9392505050565b60006020820190508181036000830152611d1181611b2a565b9050919050565b60006020820190508181036000830152611d3181611b4d565b9050919050565b60006020820190508181036000830152611d5181611b70565b9050919050565b60006020820190508181036000830152611d7181611b93565b9050919050565b60006020820190508181036000830152611d9181611bb6565b9050919050565b60006020820190508181036000830152611db181611bd9565b9050919050565b60006020820190508181036000830152611dd181611c1f565b9050919050565b600060a082019050611ded6000830188611c42565b611dfa6020830187611c42565b8181036040830152611e0c8186611a9b565b9050611e1b6060830185611a8c565b611e286080830184611c42565b9695505050505050565b6000611e3c611e4d565b9050611e488282611fc3565b919050565b6000604051905090565b600067ffffffffffffffff821115611e7257611e71612052565b5b602082029050602081019050919050565b6000819050602082019050919050565b600081519050919050565b600081519050919050565b6000602082019050919050565b600082825260208201905092915050565b600081905092915050565b600082825260208201905092915050565b6000611eee82611f86565b9150611ef983611f86565b925082611f0957611f08612023565b5b828204905092915050565b6000611f1f82611f86565b9150611f2a83611f86565b925082821015611f3d57611f3c611ff4565b5b828203905092915050565b6000611f5382611f66565b9050919050565b60008115159050919050565b600073ffffffffffffffffffffffffffffffffffffffff82169050919050565b6000819050919050565b60005b83811015611fae578082015181840152602081019050611f93565b83811115611fbd576000848401525b50505050565b611fcc82612081565b810181811067ffffffffffffffff82111715611feb57611fea612052565b5b80604052505050565b7f4e487b7100000000000000000000000000000000000000000000000000000000600052601160045260246000fd5b7f4e487b7100000000000000000000000000000000000000000000000000000000600052601260045260246000fd5b7f4e487b7100000000000000000000000000000000000000000000000000000000600052604160045260246000fd5b6000601f19601f8301169050919050565b7f4f776e61626c653a206e6577206f776e657220697320746865207a65726f206160008201527f6464726573730000000000000000000000000000000000000000000000000000602082015250565b7f5472616e7366657248656c7065723a20415050524f56455f4641494c45440000600082015250565b7f416464726573733a20756e61626c6520746f2073656e642076616c75652c207260008201527f6563697069656e74206d61792068617665207265766572746564000000000000602082015250565b7f416464726573733a20696e73756666696369656e742062616c616e6365000000600082015250565b7f496e697469616c697a61626c653a20636f6e747261637420697320616c72656160008201527f647920696e697469616c697a6564000000000000000000000000000000000000602082015250565b7f4f776e61626c653a2063616c6c6572206973206e6f7420746865206f776e6572600082015250565b50565b7f5472616e7366657248656c7065723a205452414e534645525f46524f4d5f464160008201527f494c454400000000000000000000000000000000000000000000000000000000602082015250565b61225581611f48565b811461226057600080fd5b50565b61226c81611f5a565b811461227757600080fd5b50565b61228381611f86565b811461228e57600080fd5b5056fea26469706673582212207063c6a06b19d178a95c6de8ad979076e0191233b2eecb28d3dbe42db70a23a264736f6c63430008040033",
  "linkReferences": {},
  "deployedLinkReferences": {}
}